{
  "abi": [
    {
      "inputs": [
        {
          "components": [
            {
              "internalType": "address",
              "name": "from",
              "type": "address"
            },
            {
              "internalType": "address",
              "name": "to",
              "type": "address"
            },
            {
              "internalType": "uint256",
              "name": "amount",
              "type": "uint256"
            },
            {
              "internalType": "uint256",
              "name": "duration",
              "type": "uint256"
            },
            {
              "internalType": "uint256",
              "name": "step",
              "type": "uint256"
            }
          ],
          "internalType": "struct Atomic.SwapInfo",
          "name": "info",
          "type": "tuple"
        }
      ],
      "name": "propose",
      "outputs": [
        {
          "internalType": "uint256",
          "name": "",
          "type": "uint256"
        }
      ],
      "stateMutability": "payable",
      "type": "function"
    },
    {
      "inputs": [
        {
          "internalType": "uint256",
          "name": "id",
          "type": "uint256"
        },
        {
          "components": [
            {
              "internalType": "address",
              "name": "from",
              "type": "address"
            },
            {
              "internalType": "address",
              "name": "to",
              "type": "address"
            },
            {
              "internalType": "uint256",
              "name": "amount",
              "type": "uint256"
            }
          ],
          "internalType": "struct Atomic.SwapProof",
          "name": "proof",
          "type": "tuple"
        },
        {
          "internalType": "bytes",
          "name": "signature",
          "type": "bytes"
        }
      ],
      "name": "settle",
      "outputs": [],
      "stateMutability": "nonpayable",
      "type": "function"
    },
    {
      "inputs": [
        {
          "internalType": "uint256",
          "name": "",
          "type": "uint256"
        }
      ],
      "name": "starts",
      "outputs": [
        {
          "internalType": "uint256",
          "name": "",
          "type": "uint256"
        }
      ],
      "stateMutability": "view",
      "type": "function"
    },
    {
      "inputs": [
        {
          "internalType": "uint256",
          "name": "",
          "type": "uint256"
        }
      ],
      "name": "swaps",
      "outputs": [
        {
          "internalType": "address",
          "name": "from",
          "type": "address"
        },
        {
          "internalType": "address",
          "name": "to",
          "type": "address"
        },
        {
          "internalType": "uint256",
          "name": "amount",
          "type": "uint256"
        },
        {
          "internalType": "uint256",
          "name": "duration",
          "type": "uint256"
        },
        {
          "internalType": "uint256",
          "name": "step",
          "type": "uint256"
        }
      ],
      "stateMutability": "view",
      "type": "function"
    }
  ],
  "bytecode": {
    "object": "0x608060405234801561001057600080fd5b50610a6e806100206000396000f3fe60806040526004361061003f5760003560e01c8063aab4a37714610044578063b5146b0c14610066578063c6eed1ae146100a6578063f09c5829146100b9575b600080fd5b34801561005057600080fd5b5061006461005f3660046107ce565b610142565b005b34801561007257600080fd5b506100936100813660046108b8565b60016020526000908152604090205481565b6040519081526020015b60405180910390f35b6100936100b43660046108d1565b61037d565b3480156100c557600080fd5b5061010f6100d43660046108b8565b600060208190529081526040902080546001820154600283015460038401546004909401546001600160a01b03938416949390921692909185565b604080516001600160a01b039687168152959094166020860152928401919091526060830152608082015260a00161009d565b6000838152602081905260409081902090830151600282015410156101a65760405162461bcd60e51b8152602060048201526015602482015274125b9d985b1a59081cd95d1d1b1948185b5bdd5b9d605a1b60448201526064015b60405180910390fd5b82604001518160020160008282546101be9190610963565b909155505080546001600160a01b0316330361023b57600381015460008581526001602052604090205442916101f39161097c565b106102365760405162461bcd60e51b8152602060048201526013602482015272496e76616c69642063616c6c2074696d696e6760681b604482015260640161019d565b6102f1565b60018101546001600160a01b031633036102b8576040805184516001600160a01b03908116602080840191909152860151168183015290840151606082015260009060800160408051601f19818403018152919052805160209091012082549091506102b1906001600160a01b031682856104ec565b50506102f1565b60405162461bcd60e51b815260206004820152600e60248201526d24b73b30b634b21031b0b63632b960911b604482015260640161019d565b80600201546000036103465760008481526020818152604080832080546001600160a01b0319908116825560018083018054909216909155600282018590556003820185905560049091018490559091528120555b6002810154604051339180156108fc02916000818181858888f19350505050158015610376573d6000803e3d6000fd5b5050505050565b80516000906001600160a01b031633146103d95760405162461bcd60e51b815260206004820152601a60248201527f4f6e6c7920746865206f776e65722063616e2070726f706f7365000000000000604482015260640161019d565b8160400151341461041d5760405162461bcd60e51b815260206004820152600e60248201526d125b9d985b1a5908185b5bdd5b9d60921b604482015260640161019d565b6040805183516001600160a01b0390811660208084019190915285015116818301529083015160608083019190915283015160808083019190915283015160a082015260009060c00160408051808303601f1901815291815281516020928301206000818152808452828120875181546001600160a01b03199081166001600160a01b0392831617835589870151600180850180549093169190931617905588850151600283015560608901516003830155608090980151600490910155959092529093204290555090919050565b60008060006104fb858561054d565b909250905060008160048111156105145761051461098f565b1480156105325750856001600160a01b0316826001600160a01b0316145b806105435750610543868686610592565b9695505050505050565b60008082516041036105835760208301516040840151606085015160001a6105778782858561067e565b9450945050505061058b565b506000905060025b9250929050565b6000806000856001600160a01b0316631626ba7e60e01b86866040516024016105bc9291906109c9565b60408051601f198184030181529181526020820180516001600160e01b03166001600160e01b03199094169390931790925290516105fa9190610a03565b600060405180830381855afa9150503d8060008114610635576040519150601f19603f3d011682016040523d82523d6000602084013e61063a565b606091505b509150915081801561064e57506020815110155b801561054357508051630b135d3f60e11b906106739083016020908101908401610a1f565b149695505050505050565b6000807f7fffffffffffffffffffffffffffffff5d576e7357a4501ddfe92f46681b20a08311156106b55750600090506003610739565b6040805160008082526020820180845289905260ff881692820192909252606081018690526080810185905260019060a0016020604051602081039080840390855afa158015610709573d6000803e3d6000fd5b5050604051601f1901519150506001600160a01b03811661073257600060019250925050610739565b9150600090505b94509492505050565b634e487b7160e01b600052604160045260246000fd5b6040516060810167ffffffffffffffff8111828210171561077b5761077b610742565b60405290565b604051601f8201601f1916810167ffffffffffffffff811182821017156107aa576107aa610742565b604052919050565b80356001600160a01b03811681146107c957600080fd5b919050565b600080600083850360a08112156107e457600080fd5b843593506020601f19606083820112156107fd57600080fd5b610805610758565b92506108128288016107b2565b8352610820604088016107b2565b838301526060870135604084015291935060808601359167ffffffffffffffff8084111561084d57600080fd5b838801935088601f85011261086157600080fd5b83358181111561087357610873610742565b6108838484601f84011601610781565b9250808352898482870101111561089957600080fd5b8084860185850137600084828501015250508093505050509250925092565b6000602082840312156108ca57600080fd5b5035919050565b600060a082840312156108e357600080fd5b60405160a0810181811067ffffffffffffffff8211171561090657610906610742565b604052610912836107b2565b8152610920602084016107b2565b60208201526040830135604082015260608301356060820152608083013560808201528091505092915050565b634e487b7160e01b600052601160045260246000fd5b818103818111156109765761097661094d565b92915050565b808201808211156109765761097661094d565b634e487b7160e01b600052602160045260246000fd5b60005b838110156109c05781810151838201526020016109a8565b50506000910152565b82815260406020820152600082518060408401526109ee8160608501602087016109a5565b601f01601f1916919091016060019392505050565b60008251610a158184602087016109a5565b9190910192915050565b600060208284031215610a3157600080fd5b505191905056fea2646970667358221220579b9ed2cbd1b3041b98938213c5794423ef9be0279a7e69a92e2090365a659564736f6c63430008110033",
    "linkReferences": {}
  },
  "methodIdentifiers": {
    "propose((address,address,uint256,uint256,uint256))": "c6eed1ae",
    "settle(uint256,(address,address,uint256),bytes)": "aab4a377",
    "starts(uint256)": "b5146b0c",
    "swaps(uint256)": "f09c5829"
  },
  "id": 25
}